:020000040800F2
:1000000000800020C5AD0008DD620008DF62000846
:10001000E1620008E3620008E562000800000000F9
:1000200000000000000000000000000015AE000805
:10003000E76200080000000015AE0008E962000851
:1000400015AE000815AE000815AE000815AE000884
:1000500015AE000815AE000815AE000815AE000874
:1000600015AE000815AE000815AE000815AE000864
:1000700015AE000815AE000815AE000815AE000854
:1000800015AE000815AE000815AE000815AE000844
:1000900015AE000815AE000815AE000815AE000834
:1000A00015AE000815AE000815AE000815AE000824
:1000B00015AE000815AE000815AE000815AE000814
:1000C00015AE000815AE000815AE000815AE000804
:1000D00015AE000815AE000815AE000815AE0008F4
:1000E00015AE000815AE000815AE000815AE0008E4
:1000F00015AE000815AE000800000000000000006A
:10010000000000000000000015AE000815AE000859
:10011000000000000000000015AE000815AE000849
:1001200015AE000815AE000815AE000815AE0008A3
:1001300015AE000815AE000815AE000815AE000893
:1001400015AE0008000000000000000000000000E4
:10015000000000000000000000000000000000009F
:10016000000000000000000015AE0008ED6200086D
:1001700015AE000800000000FD620008000000004D
:080180000000000015AE0008AC
:1001C00001F0FF01102A2BDB10F0070F08D010F808
:1001D000013B013A8B422DD010F0070F42B3F6D10C
:1001E000F0B441EA012141EA014122F007047FF025
:1001F00000070023F0E80256083C85EA010586EA7C
:10020000010685FA47F5A3FA87F586FA47F6A5FAB7
:1002100087F68EB9EED1F0BC01F0FF0102F00702C3
:1002200032B110F8013B013A83EA010313B1F8D16E
:100230000020704701387047002D06BF354603384F
:10024000073815F0010F07D1013015F4807F02BF88
:10025000013015F4C03F0130F0BC0138704700BFD9
:10026000844641EA000313F003036DD1403A41D3C1
:1002700051F8043B40F8043B51F8043B40F8043B80
:1002800051F8043B40F8043B51F8043B40F8043B70
:1002900051F8043B40F8043B51F8043B40F8043B60
:1002A00051F8043B40F8043B51F8043B40F8043B50
:1002B00051F8043B40F8043B51F8043B40F8043B40
:1002C00051F8043B40F8043B51F8043B40F8043B30
:1002D00051F8043B40F8043B51F8043B40F8043B20
:1002E00051F8043B40F8043B51F8043B40F8043B10
:1002F000403ABDD2303211D351F8043B40F8043BB0
:1003000051F8043B40F8043B51F8043B40F8043BEF
:1003100051F8043B40F8043B103AEDD20C3205D3BF
:1003200051F8043B40F8043B043AF9D2043208D0B7
:10033000D2071CBF11F8013B00F8013B01D30B8829
:1003400003806046704700BF082A13D38B078DD007
:1003500010F003038AD0C3F10403D21ADB071CBFD9
:1003600011F8013B00F8013B80D331F8023B20F843
:10037000023B7BE7043AD9D3013A11F8013B00F87C
:10038000013BF9D20B7803704B7843708B78837004
:100390006046704700000000000000000000000000
:1003A000A2EB0300704700BF02780B78012A28BF38
:1003B0009A42F5D16DE9044540EA0104CDE90267AE
:1003C0006FF0000C4FEA447212B380EA010414F09B
:1003D000070F6AD100F0070420F0070004F00305BE
:1003E00021F007014FEAC505F0E8042314F0040FDB
:1003F000F1E804670CFA05F462EA040266EA04060E
:100400000AD063EA0403624667EA0407664603E02B
:10041000F0E80423F1E8046782FA4CF582EA060466
:10042000A4FA8CF46CBB83FA4CF583EA0705A5FAB1
:100430008CF595B950E9022351E9026782FA4CF52F
:1004400082EA0604A4FA8CF483FA4CF583EA0705E1
:10045000A5FA8CF52543DBD09CB92DBAB5FA85F405
:1004600024F0070427FA04F1DDE9026723FA04F314
:1004700003F0FF0001F0FF01FDE80445A0EB0100DF
:10048000704724BAB4FA84F424F0070426FA04F17D
:10049000DDE9026722FA04F202F0FF0001F0FF0139
:1004A000FDE80445A0EB0100704714F0030F3CD1B8
:1004B00010F0030428D150F8082B51F8083B82FAB9
:1004C0004CF582EA0305A5FA8CF55DB950F8042CC9
:1004D00051F8043C82FA4CF582EA0305A5FA8CF542
:1004E000002DE8D02DBAB5FA85F424F0070423FADC
:1004F00004F122FA04F202F0FF0001F0FF01FDE82E
:100500000445A0EB010070474FEAC40420F003004B
:1005100050F8082B21F0030151F8083B0CFA04F4C1
:1005200062EA040263EA0403C9E710F003041AD084
:10053000A1EB040120F00300E40750F8042B06D0DF
:100540000FD28B785FFAA2F4E41A06D12BB1CB78E4
:100550005FFAB2F4E41A00D11BB920465DF8104BE3
:10056000704701F1040150F8042BCC0721F003017E
:1005700051F8043B48D824D222F07F4482FA4CF54B
:1005800094EA1325A5FA8CF50AD165B951F8043B14
:1005900084EA0204B4EB036F0ED150F8042BEBE7AE
:1005A0004FEA132355E035F07F454DD10878FDE83B
:1005B0000445C0F1000070474FEA126203F0FF03E8
:1005C00047E002EA1C4482FA4CF594EA1345A5FA86
:1005D0008CF50AD165B951F8043B84EA0204B4EB06
:1005E000034F0CD150F8042BEBE74FEA134330E0F4
:1005F00015EA1C4528D10B884FEA124229E04FEA40
:10060000124203EA1C4324E002F0FF0482FA4CF594
:1006100094EA1365A5FA8CF50AD165B951F8043B43
:1006200084EA0204B4EB032F09D150F8042BEBE762
:100630004FEA13630DE015F0FF0F05D10B684FEA89
:10064000122223F07F4304E04FF00000FDE8044550
:10065000704712BA1BBA82FA4CF482EA0304A4FA75
:100660008CF5B5FA85F402FA04F203FA04F34FEAC2
:100670001260FDE80445A0EB136070470000000025
:1006800090F800F06DE9024520F007016FF0000CD2
:1006900010F0070491F820F040F049804FF000047A
:1006A0006FF00700D1E9002391F840F000F1080055
:1006B00082FA4CF2A4FA8CF283FA4CF3A2FA8CF38D
:1006C0004BBBD1E9022382FA4CF200F10800A4FAF4
:1006D0008CF283FA4CF3A2FA8CF3E3B9D1E9042348
:1006E00082FA4CF200F10800A4FA8CF283FA4CF37F
:1006F000A2FA8CF37BB9D1E9062301F1200182FA39
:100700004CF200F10800A4FA8CF283FA4CF3A2FA3E
:100710008CF3002BC6D0002A04BF04301A4612BA4C
:10072000B2FA82F2FDE8024500EBD2007047D1E94F
:10073000002304F00305C4F100004FEAC50514F0DE
:10074000040F91F840F00CFA05F562EA05021CBFAF
:1007500063EA050362464FF00004A9E781F0004117
:1007600002E000BF83F0004330B54FEA41044FEA96
:10077000430594EA050F08BF90EA020F1FBF54EA31
:10078000000C55EA020C7FEA645C7FEA655C00F0CD
:10079000E2804FEA5454D4EB5555B8BF6D420CDD9E
:1007A0002C4480EA020281EA030382EA000083EA21
:1007B000010180EA020281EA0303362D88BF30BDC1
:1007C00011F0004F4FEA01314FF4801C4CEA113117
:1007D00002D0404261EB410113F0004F4FEA033376
:1007E0004CEA133302D0524263EB430394EA050F01
:1007F00000F0A780A4F10104D5F1200E0DDB02FA70
:100800000EFC22FA05F2801841F1000103FA0EF203
:10081000801843FA05F359410EE0A5F120050EF1C9
:10082000200E012A03FA0EFC28BF4CF0020C43FAFA
:1008300005F3C01851EBE37101F0004507D54FF007
:10084000000EDCF1000C7EEB00006EEB0101B1F557
:10085000801F1BD3B1F5001F0CD349085FEA30009D
:100860004FEA3C0C04F101044FEA445212F5800FA8
:1008700080F09A80BCF1004F08BF5FEA500C50F145
:10088000000041EB045141EA050130BD5FEA4C0C28
:10089000404141EB0101013C28BFB1F5801FE9D285
:1008A00091F0000F04BF01460020B1FA81F308BFA8
:1008B0002033A3F10B03B3F120020CDA0C3208DD74
:1008C00002F1140CC2F10C0201FA0CF021FA02F14F
:1008D0000CE002F11402D8BFC2F1200C01FA02F1BF
:1008E00020FA0CFCDCBF41EA0C019040E41AA2BFE4
:1008F00001EB0451294330BD6FEA04041F3C1CDAAC
:100900000C340EDC04F11404C4F1200220FA04F0CB
:1009100001FA02F340EA030021FA04F345EA030175
:1009200030BDC4F10C04C4F1200220FA02F001FA37
:1009300004F340EA0300294630BD21FA04F02946B9
:1009400030BD94F0000F83F4801306BF81F4801152
:100950000134013D4EE77FEA645C18BF7FEA655CC5
:1009600029D094EA050F08BF90EA020F05D054EA97
:10097000000C04BF1946104630BD91EA030F1EBF9C
:100980000021002030BD5FEA545C05D140004941A0
:1009900028BF41F0004130BD14F580043CBF01F593
:1009A000801130BD01F0004545F0FE4141F4700179
:1009B0004FF0000030BD7FEA645C1ABF1946104654
:1009C0007FEA655C1CBF0B46024650EA013406BF55
:1009D00052EA033591EA030F41F4002130BD00BF14
:1009E00090F0000F04BF0021704730B54FF48064D1
:1009F00004F132044FF000054FF0000150E700BF52
:100A000090F0000F04BF0021704730B54FF48064B0
:100A100004F1320410F0004548BF40424FF000019D
:100A20003EE700BF42004FEAE2014FEA31014FEAE0
:100A300002701FBF12F07F4393F07F4F81F060512F
:100A4000704732F07F4208BF704793F07F4F04BF7A
:100A500041F40021704730B54FF4607401F0004557
:100A600021F000411CE700BF50EA010208BF7047B7
:100A700030B54FF000050AE050EA010208BF7047A8
:100A800030B511F0004502D5404261EB41014FF411
:100A9000806404F132045FEA915C3FF4D8AE4FF019
:100AA00003025FEADC0C18BF03325FEADC0C18BFFC
:100AB000033202EBDC02C2F1200300FA03FC20FA4D
:100AC00002F001FA03FE40EA0E0021FA02F114449A
:100AD000BDE600BF70B54FF0FF0C4CF4E06C1CEAB3
:100AE00011541DBF1CEA135594EA0C0F95EA0C0F24
:100AF00000F0DEF82C4481EA030621EA4C5123EA97
:100B00004C5350EA013518BF52EA033541F48011C5
:100B100043F4801338D0A0FB02CE4FF00005E1FB78
:100B200002E506F00042E0FB03E54FF00006E1FBC2
:100B300003569CF0000F18BF4EF0010EA4F1FF0405
:100B4000B6F5007F64F5407404D25FEA4E0E6D4145
:100B500046EB060642EAC62141EA55514FEAC52056
:100B600040EA5E504FEACE2EB4F1FD0C88BFBCF5D2
:100B7000E06F1ED8BEF1004F08BF5FEA500E50F183
:100B8000000041EB045170BD06F0004646EA010149
:100B900040EA020081EA0301B4EB5C04C2BFD4EB7B
:100BA0000C0541EA045170BD41F480114FF0000E74
:100BB000013C00F3AB8014F1360FDEBF002001F0E2
:100BC000004170BDC4F10004203C35DA0C341BDC5C
:100BD00004F11404C4F1200500FA05F320FA04F02E
:100BE00001FA05F240EA020001F0004221F0004162
:100BF00010EBD37021FA04F642EB06015EEA430ED5
:100C000008BF20EAD37070BDC4F10C04C4F1200504
:100C100000FA04F320FA05F001FA04F240EA0200B7
:100C200001F0004110EBD37041F100015EEA430E88
:100C300008BF20EAD37070BDC4F1200500FA05F2A8
:100C40004EEA020E20FA04F301FA05F243EA020327
:100C500021FA04F001F0004121FA04F220EA020036
:100C600000EBD3705EEA430E08BF20EAD37070BD7C
:100C700094F0000F0FD101F00046400041EB01015C
:100C800011F4801F08BF013CF7D041EA060195F03E
:100C9000000F18BF704703F00046520043EB0303F8
:100CA00013F4801F08BF013DF7D043EA06037047E5
:100CB00094EA0C0F0CEA135518BF95EA0C0F0CD0F0
:100CC00050EA410618BF52EA4306D1D181EA030136
:100CD00001F000414FF0000070BD50EA410606BF30
:100CE0001046194652EA430619D094EA0C0F02D175
:100CF00050EA013613D195EA0C0F05D152EA0336BA
:100D00001CBF104619460AD181EA030101F00041D7
:100D100041F0FE4141F470014FF0000070BD41F020
:100D2000FE4141F4780170BD70B54FF0FF0C4CF4FA
:100D3000E06C1CEA11541DBF1CEA135594EA0C0F19
:100D400095EA0C0F00F0A7F8A4EB050481EA030E66
:100D500052EA03354FEA013100F088804FEA03334D
:100D60004FF0805545EA131343EA12634FEA02221B
:100D700045EA111545EA10654FEA00260EF00041DC
:100D80009D4208BF964244F1FD0404F5407402D22E
:100D90005B084FEA3202B61A65EB03055B084FEABF
:100DA00032024FF480104FF4002CB6EB020E75EBBC
:100DB000030E22BFB61A754640EA0C005B084FEAE4
:100DC0003202B6EB020E75EB030E22BFB61A754661
:100DD00040EA5C005B084FEA3202B6EB020E75EBAC
:100DE000030E22BFB61A754640EA9C005B084FEA24
:100DF0003202B6EB020E75EB030E22BFB61A754631
:100E000040EADC0055EA060E18D04FEA051545EA1F
:100E100016754FEA06164FEAC30343EA52734FEAC8
:100E2000C2025FEA1C1CC0D111F4801F0BD141EA41
:100E300000014FF000004FF0004CB6E711F4801FA6
:100E400004BF01430020B4F1FD0C88BFBCF5E06F86
:100E50003FF6AFAEB5EB030C04BFB6EB020C5FEA96
:100E6000500C50F1000041EB045170BD0EF0004EEB
:100E70004EEA113114EB5C04C2BFD4EB0C0541EA1D
:100E8000045170BD41F480114FF0000E013C90E61A
:100E900045EA060E8DE60CEA135594EA0C0F08BFDE
:100EA00095EA0C0F3FF43BAF94EA0C0F0AD150EADD
:100EB00001347FF434AF95EA0C0F7FF425AF104670
:100EC00019462CE795EA0C0F06D152EA03353FF498
:100ED000FDAE1046194622E750EA410618BF52EA15
:100EE00043067FF4C5AE50EA41047FF40DAF52EAE9
:100EF00043057FF4EBAE12E74FF0FF3C06E000BF86
:100F00004FF0010C02E000BF4FF0010C4DF804CD92
:100F10004FEA410C7FEA6C5C4FEA430C18BF7FEA52
:100F20006C5C1BD001B050EA410C0CBF52EA430C80
:100F300091EA030F02BF90EA020F0020704710F100
:100F4000000F91EA030F58BF994208BF90422CBF8F
:100F5000D8176FEAE37040F0010070474FEA410C88
:100F60007FEA6C5C02D150EA013C07D14FEA430CA6
:100F70007FEA6C5CD6D152EA033CD3D05DF8040B17
:100F8000704700BF8446104662468C461946634649
:100F900000E000BF01B5FFF7B7FF002848BF10F120
:100FA000000F01BD4DF808EDFFF7F4FF0CBF012065
:100FB00000205DF808FB00BF4DF808EDFFF7EAFFE1
:100FC00034BF012000205DF808FB00BF4DF808ED9C
:100FD000FFF7E0FF94BF012000205DF808FB00BF91
:100FE0004DF808EDFFF7CEFF94BF012000205DF81B
:100FF00008FB00BF4DF808EDFFF7C4FF34BF012028
:1010000000205DF808FB00BF4FEA410C7FEA6C5CF2
:1010100002D150EA013C0AD14FEA430C7FEA6C5CF2
:1010200002D152EA033C02D14FF0000070474FF06A
:10103000010070474FEA410212F5001215D211D596
:101040006FF47873B3EB625212D94FEAC12343F0C5
:10105000004343EA505311F0004F23FA02F018BF47
:10106000404270474FF00000704750EA013005D110
:1010700011F0004008BF6FF0004070474FF00000D3
:10108000704700BF4A0011D212F5001211D20DD5DF
:101090006FF47873B3EB62520ED44FEAC12343F07E
:1010A000004343EA505323FA02F070474FF0000028
:1010B000704750EA013002D14FF0FF3070474FF0D7
:1010C0000000704753B94AB9002908BF00281CBF67
:1010D0004FF0FF314FF0FF3000F0E2B8ADF1080CF7
:1010E0006DE904CE18F0EAFADDF804E0DDE9022348
:1010F00004B0704700F1340191E838009C46A646E0
:101100004CF8045D90E8FF0FE54600BD90EC210B24
:10111000704700BF80EC210B704700BF90EC200BA4
:10112000704700BF80EC200B704700BFD0EC200B55
:10113000704700BFC0EC200B704700BFF0EC02010D
:10114000F0EC0211F0EC0221F0EC0231F0EC024183
:10115000F0EC0251F0EC0261F0EC0271F0EC028173
:10116000F0EC0291F0EC02A1F0EC02B1F0EC02C163
:10117000F0EC02D1F0EC02E1F0EC02F1704700BFBC
:10118000E0EC0201E0EC0211E0EC0221E0EC0231C3
:10119000E0EC0241E0EC0251E0EC0261E0EC0271B3
:1011A000E0EC0281E0EC0291E0EC02A1E0EC02B1A3
:1011B000E0EC02C1E0EC02D1E0EC02E1E0EC02F193
:1011C000704700BFB0FC0181B0FC0191B0FC01A1EF
:1011D000B0FC01B1704700BFA0FC0181A0FC0191EF
:1011E000A0FC01A1A0FC01B1704700BFEC4600B516
:1011F0002DE900502DE9FF1F4FF000032DE90C00F1
:1012000001A918F00FFDDDF840E012B0704700BFF3
:10121000EC4600B52DE900502DE9FF1F4FF000030B
:101220002DE90C0001A918F037FDDDF840E012B0FF
:10123000704700BFEC4600B52DE900502DE9FF1FB7
:101240004FF000032DE90C0001A918F047FDDDF86F
:1012500040E012B0704700BFEC4600B52DE90050E9
:101260002DE9FF1F4FF000032DE90C0001AB18F032
:1012700009FDDDF840E012B0704700BFEC4600B554
:101280002DE900502DE9FF1F4FF000032DE90C0060
:1012900001AA18F07DFDDDF840E012B0704700BFF4
:1012A000704700BF10B5054C237833B9044B13B118
:1012B0000448AFF300800123237010BD500B0020C1
:1012C000000000008CA6010808B5034B1BB10349C0
:1012D0000348AFF3008008BD00000000540B00205D
:1012E0008CA601088AB2B2F5805F00D3704708B5BA
:1012F0000B4600221146C06805F04EFA08BD0000FA
:1013000070B5064655EC104B0022002310EE100A73
:101310002946FFF751FEB8B90DA3D3E900232046B3
:101320002946FFF701FD0CA3D3E90023FFF7D2FB09
:1013300041EC100B11F0A4FF51EC100BFFF77AFEFB
:1013400001B23046FFF7CEFF70BD00BFAFF30080A3
:10135000CDCCCCCCCCCC12400000000000FEAF4085
:10136000C3604160826001230370704708B5034B7E
:10137000034A04490448FFF7F3FF08BD5C0C002052
:10138000F00C0020340D0020A80B002010B50446FE
:10139000002380F8303080F8323080F8313001217D
:1013A0000D4805F001FB10B9012384F830304FF4EB
:1013B00000714FF0904005F0F7FA10B9012384F85E
:1013C000323020214FF0904005F0EEFA10B90123A1
:1013D00084F8313010BD00BF0004004810B582B061
:1013E0000446FFF7D3FF94F830308DF8003094F8BE
:1013F00032308DF8013094F831308DF80230009B96
:101400000020DAB262F30700C3F3072262F30F2071
:10141000C3F3074363F3174002B010BD024690F8D0
:1014200030305BB9002092F832300BB1431CD8B297
:1014300092F831300BB10130C0B270470120F2E7B1
:1014400010B50446FFF7A2FF2046FFF7E7FF00B103
:10145000012010BD10B400240460828081605DF81A
:10146000044B704738B504460F4D80222946FFF7DC
:10147000F1FF4022294604F10C00FFF7EBFFA5F530
:1014800080554FF48072294604F11800FFF7E2FFFF
:101490000822294604F12400FFF7DCFF2046FFF76D
:1014A00075FF204638BD00BF0014004803688B421A
:1014B00024D010B50446012903D0022911D041B12E
:1014C00010BD01228188806805F075FA0123236030
:1014D000F6E700228188806805F06DFA002323601A
:1014E000EEE78188806805F06BFA2368012B02D053
:1014F00001232360E4E700232360E1E7704770479E
:1015000010B50446C06C04F15403984201D009F0B0
:1015100009FD206904F11803984201D009F002FD89
:10152000204610BD08B5FFF721FF08BD00B583B008
:101530000D48FFF785FF10B903B05DF804FB0A48BA
:10154000FFF74CFF8DF80400C0F307238DF805303A
:10155000C0F307408DF806000199044803F062FECD
:10156000C82004F063FFE7E76C0B0020A40B002009
:1015700008B5FFF7DBFF024803F0C4FE08BD00BF5B
:10158000A40B002070B582B005460E4661B1941BD5
:1015900001940F2C0DD82868012C13D0A4B1224639
:1015A0003146FEF75DFE0FE09142F0D00A480AF0A6
:1015B00045FA002201A928460AF070FA2860019B2A
:1015C000AB60E8E733780370019B6B602A68002109
:1015D000D15402B070BD00BFA8A6010870B58CB090
:1015E000044602AB00933F4A4FF00003A2F1090109
:1015F0006846FFF7C7FF2546002305F8103B04F1B6
:101600001803236138494FF000030A462846FFF7C4
:10161000B9FF00232385E36202232363002363636E
:10162000A363694628460AF05DFA009802AB984227
:1016300001D009F077FC04F13C0508AB06932B4A76
:101640004FF00003A2F1090106A8FFF79BFF0DE090
:1016500020691834A04201D009F064FC009802AB64
:10166000984201D009F05EFC09F060FC002384F888
:101670003C3005F1100605F118032B611A494FF0B3
:1016800000030A463046FFF77DFF00232B85EB62FF
:1016900002232B6300236B63AB6306A930460AF079
:1016A00021FA069808AB984201D009F03BFC20468D
:1016B0000CB070BD28691835A84201D009F032FC81
:1016C000069808AB984201D009F02CFC2069183428
:1016D000A04201D009F026FC09F028FCBEE7EFE7A4
:1016E000F4E700BFDDA6010844A70108E9A6010848
:1016F000012800D0704738B54FF6FF73994200D0EB
:1017000038BD0C4D2846FFF769FF0B4C22460B49AC
:10171000284609F081FB0A48FFF7A4FE094803F0B8
:1017200033FD0948094B03602246094909F074FB5F
:10173000E6E700BFA80B002000000020011500080C
:101740006C0B0020A40B0020200C002050A90108E5
:10175000FF14000810B50446042109F0E5FB2046FB
:1017600010BD08B54FF6FF710120FFF7C1FF08BD9E
:101770007047000038B50C461546254920460AF04A
:1017800073FB10B900232B6038BD224920460AF0B4
:101790006BFB10B901232B60F6E71F4920460AF0C6
:1017A00063FB10B902232B60EEE71C4920460AF0C8
:1017B0005BFB10B903232B60E6E7194920460AF0CA
:1017C00053FB10B904232B60DEE7164920460AF0CC
:1017D0004BFB10B905232B60D6E7134920460AF0CE
:1017E00043FB10B906232B60CEE7104920460AF0D0
:1017F0003BFB10B907232B60C6E70D4920460AF0D2
:1018000033FB10B908232B60BEE709232B60BBE72D
:10181000ECA60108F4A60108FCA6010804A701082B
:101820000CA7010814A701081CA7010824A7010898
:101830002CA7010841EC100B704702607047F0B410
:101840008AB004460F46694681E80C0002AE03C91F
:1018500086E8090006AD0EAB0FCB85E80F0084E8E3
:101860000F000022227404AB96E8030083E8030013
:1018700004F1140585E803006277276284F8642088
:1018800020460AB0F0BC704770B582B005460E46DF
:1018900061B1941B01940F2C0DD82868012C13D032
:1018A000A4B122463146FEF7DBFC0FE09142F0D0B6
:1018B0000A480AF0C3F8002201A928460AF0EEF807
:1018C0002860019BAB60E8E733780370019B6B6095
:1018D0002A680021D15402B070BD00BFA8A601083B
:1018E0002DE9F04F85B00446DDB23DB9062380F8FE
:1018F00064300026304605B0BDE8F08F8B460023EB
:10190000437704F11402637FABB1237F202B3AD8D5
:10191000DFE803F02139393939393939393636397F
:10192000393639393939393939393939393939392A
:10193000393939393600636951688B4208D2591CEC
:1019400061611B7823EAE373137201235372DCE7AE
:101950004FF0FF33F6E7237C83B1022384F8643031
:101960000026002EC6D004F11408637F73B1237FD4
:101970007D2B40F0A88300236377BBE70123EDE7CD
:1019800000236377BDE701262674EAE76369D8F888
:10199000042093420AD25A1C62611B7823EAE37343
:1019A00088F80830012388F80930E0E74FF0FF336A
:1019B000F4E7636951688B4208D2591C61611B7856
:1019C00023EAE3731372012353728AE34FF0FF3368
:1019D000F6E76369DEF8042093420AD25A1C62617A
:1019E0001B7823EAE3738EF8083001238EF8093060
:1019F00084E34FF0FF33F4E7304650BB032384F811
:101A0000643002E13046F8E73046F6E73046F4E766
:101A10003046F2E73046F0E7002363602368012296
:101A20001A7421E0DEF80030DEF8042093420BD275
:101A30005A1CCEF800201B7823EAE3738EF8083096
:101A400001238EF8093012E04FF0FF33F4E702462D
:101A500062B300226277676837B1A268E1688A42A0
:101A6000DAD2511CA160BB54637F002BDAD0237FF4
:101A70002F2B01D9392BEAD95E2B01D97A2B0BD91F
:101A8000402B01D95A2B09D92B2B09D02D2B09D04A
:101A90002E2B09D00022DBE70246D9E70246D7E722
:101AA0000246D5E70246D3E70246D1E7D4F804C0A0
:101AB000BCF1000F08D0A368E1688B420DD2591C1D
:101AC000A16000210CF803106368002B40F09D809A
:101AD000042384F86430104697E000236360236891
:101AE00001211974F0E70023ADF8083004F1140166
:101AF000637F23B194F81CC00023637733E16369EB
:101B00004A68934208D25A1C62611B7823EAE37345
:101B10000B7201234B72EDE74FF0FF33F6E70B68D2
:101B20004A68934208D25A1C0A601B7823EAE3737E
:101B30000B7201234B721AE14FF0FF33F6E70223D9
:101B400084F86430002060E00B684A68934215D244
:101B50005A1C0A601B7823EAE3730B7201234B7251
:101B6000207F70B1752810D0AD4B1A78002A00F094
:101B7000EE80904200F0EA800233F6E74FF0FF3348
:101B8000E9E7022384F864303FE0002060770746ED
:101B900023E06369D9F8042093420AD25A1C626197
:101BA0001B7823EAE37389F80830012389F80930A8
:101BB0001AE04FF0FF33F4E7022384F8643000208A
:101BC00022E0A2F13003DBB20F2B17D843EA071350
:101BD0009FB2002363770130C0B2032813D804F109
:101BE0001409637F002BD4D0227F002AE4D0402A3E
:101BF000E7D902F0DF02373AD3B2E5E7032384F8EE
:101C00006430002000E0304678BB002800F0A2825B
:101C100004F11402637F002B00F0DA80237F202B75
:101C200000F20381DFE813F0E4000101010101018A
:101C300001010101010101010101FE00FE0001019C
:101C40000101FE0001010101010101010101010188
:101C50000101010101010101010101010101010174
:101C60000101010101010101FE0007F520539BB2B2
:101C7000B3F5806F12D307F510539BB2B3F5806FA5
:101C800011D30397039A234600208DF800007F2A82
:101C900013D88DF801200DF1020A45E0C7F30903BE
:101CA000ADF808305FE0BDF80820C7F3090343EA48
:101CB000822303F580330393E4E702F03F0040F012
:101CC00080008DF801009009C2F38F121F2A06D8F8
:101CD00060F03F008DF802000DF1030A24E000F0EF
:101CE0003F0242F080028DF80220C0F3891296462E
:101CF0000F2A06D862F01F028DF803200DF1040AA6
:101D000012E002F03F0242F080028DF80320C0F39F
:101D1000033242F0F0028DF804200DF1050A03E0D1
:101D20007A1C9A6009F807001AF8010DD8B1D3F8A7
:101D30000490B9F1000FF7D09F68DA689742EFD3AB
:101D400000225A601A6801201074EDE75A7812B127
:101D50000023637716E0032384F86430002054E7FF
:101D6000431CA3603A54637F002B3FF4D8AE227F1C
:101D700000236377944512D0002A3FF4E0AE5C2A3A
:101D80003FF4E2AE6768002FEDD0A068E3689842A8
:101D9000E6D300236360236801221A74E3E76268D4
:101DA0003AB1A368E1688B4207D2591CA1600021B7
:101DB000D15463683BB1304627E700236360236852
:101DC00001221A74F5E7042384F8643000201CE72C
:101DD000636951688B4208D2591C61611B7823EA00
:101DE000E37313720123537218E74FF0FF33F6E7E2
:101DF000237C93B1022384F864300020002800F093
:101E0000AC81637FA3B1237F3A2B73D10023637727
:101E1000D4F804A0DBF800902AE00123EBE700BF30
:101E200034A7010800236377F2E601232374E5E772
:101E3000D8F80030D8F8042093420BD25A1CC8F8C6
:101E400000201B7823EAE37388F80830012388F820
:101E50000930D8E74FF0FF33F4E75046FEF7A4FA15
:101E6000D8B1D9F80C30B3B103EB430309EBC30984
:101E7000B9F1000F11D0D9F81010514506D0BAF1C0
:101E8000000F05D00029E8D10120E9E70020E7E7AD
:101E90004FF0FF30E4E74FF00009B9F1000F2ED00A
:101EA0004946B9F1000F2AD06B1E4FF000022046C0
:101EB00000F05EF90246002800F0528104F114019E
:101EC000637F002B70D0237F202B00F29480DFE80B
:101ED00003F07B92929292929292928F8F92928F33
:101EE00092929292929292929292929292929292D2
:101EF00092928F00032384F864300026FAE4D4F829
:101F00000090D4F808A0D9F804E0D9F800C0E6455C
:101F100010D9714663461A780878904203D101338C
:101F200052B10131F7E71A780AB10133FBE703F147
:101F3000010CECE74FF0000CBCF1000F22D0226A3C
:101F4000536803F118019368994221D8A3F118014D
:101F50009160F9B1DBF804200AB3881A4FEAE00E69
:101F6000824800FB0EF0D060CBF80410002243F84A
:101F70000C2C03F8102C43F8082C80230B72C1F8AA
:101F800010C091E70EEB0A03C9F80430F446D6E717
:101F900001231374042384F864300026AAE4CBF8E8
:101FA0000010CBF80410E1E763694868834208D267
:101FB000581C60611B7823EAE3730B7201234B7298
:101FC00081E74FF0FF33F6E7237C7BB1022384F8EF
:101FD00064300022002A00F0C680637F73B1237F43
:101FE0007D2B20D100236377164683E40123EEE79F
:101FF0000023637762E701232374EBE7D8F800300E
:10200000D8F804108B420BD2591CC8F800101B786A
:1020100023EAE37388F80830012388F80930DEE703
:102020004FF0FF33F4E7637FFBB1237F2C2B40F0AD
:102030008B800023637704F11401637F53B3237F04
:10204000202B7BD8DFE803F0367A7A7A7A7A7A7AAC
:102050007A77777A7A777A7A7A7A7A7A7A7A7A7AE9
:102060007A7A7A7A7A7A7A7A7700D8F80030D8F859
:1020700004108B420BD2591CC8F800101B7823EABD
:10208000E37388F80830012388F80930CDE74FF072
:10209000FF33F4E763694868834208D2581C6061E3
:1020A0001B7823EAE3730B7201234B72C7E74FF0EF
:1020B000FF33F6E7237C002B3BD0022384F8643007
:1020C0000022002A3DD023685A6862609B689B1AF0
:1020D000E3600023A36004F11402637F002B3FF44C
:1020E00068AC237F272B3FF4FEAC222B3FF4FBACE4
:1020F00004F1140E637F002B3FF46BAC237F2F2B76
:1021000002D9392B7FF678AC5E2B02D97A2B7FF679
:1021100079AC402B02D95A2B7FF676AC2B2B3FF4AF
:1021200075AC2D2B3FF474AC2E2B3FF473AC002018
:1021300063E40123C2E7002363777CE70123237470
:10214000BFE71646FFF7D6BB032384F864300026AA
:10215000FFF7D0BB0646FFF7CDBB0646FFF7CABB6D
:102160000646FFF7C7BB1646FFF7C4BBABAAAAAA31
:102170002DE9F04F89B00446884604F11402617FCE
:10218000A9B1227F202A50D8DFE802F0214F4F4F1B
:102190004F4F4F4F4F4C4C4F4F4C4F4F4F4F4F4F58
:1021A0004F4F4F4F4F4F4F4F4F4F4F4F4C00616965
:1021B0005068814208D2481C6061097821EAE171C7
:1021C000117201215172DCE74FF0FF31F6E7227CFA
:1021D00032B3022284F864200025002D4DD004F192
:1021E0001401627F22B3227F5B2A4AD030D8222A90
:1021F00002D0272A40F0FD8223685A6862609B68FB
:102200009B1AE3600023A360ADF8183004F11401B9
:10221000637F002B00F08081207F0023637792E2B0
:102220000122D7E700226277A7E701252574D4E7CA
:1022300060694A68904208D2421C6261027822EAD0
:10224000E2720A7201224A72CDE74FF0FF32F6E7DE
:102250007B2A40F0CE8298F8082002F0800242F0FB
:10226000200288F808200022C8F80020C8F80420BE
:1022700041462046FFF734FB0546284609B0BDE835
:10228000F08F98F8082002F0800242F0400288F8AF
:10229000082047460022C8F80020C8F80420DEB213
:1022A00026B9062384F864301546E6E700236377F1
:1022B00004F11402637FABB1237F202B39D8DFE810
:1022C00003F021383838383838383835353838352B
:1022D000383838383838383838383838383838387E
:1022E00038383500636951688B4208D2591C6161E6
:1022F0001B7823EAE373137201235372DCE74FF078
:10230000FF33F6E7237C7BB1022384F86430002599
:10231000002DB2D004F11408637F6BB1237F5D2BD5
:102320006ED100236377A8E70123EEE700236377EC
:10233000BEE701232374EBE76369D8F804209342D6
:102340000AD25A1C62611B7823EAE37388F80830CA
:10235000012388F80930E1E74FF0FF33F4E7012368
:102360000374042384F86430002586E739607960BB
:102370005CE0626959688A4208D2511C6161127836
:1023800022EAE2721A7201225A7263E04FF0FF32BF
:10239000F6E7237C73B1022384F864300025002D16
:1023A0003FF46BAF637F6BB1237F5D2B1FD10023A5
:1023B000637762E70123EFE70023637745E00123BA
:1023C0002374ECE7D8F80030D8F8042093420BD2FD
:1023D0005A1CC8F800201B7823EAE37388F80830F9
:1023E000012388F80930DFE74FF0FF33F4E7637F1C
:1023F000002B77D0237F2C2B40F08980002363773C
:10240000206A436803F1180283689A42A7D8A3F1AF
:10241000180181600029A4D07A68002AA6D0881A01
:10242000C510C54800FB05F0D0607960002243F874
:102430000C2C03F8102C43F8082C731E2046FFF7D1
:1024400097FE054600283FF418AF04F11403627F9D
:10245000002A8ED0237F202BB1D801A252F823F07E
:1024600093230008BF230008BF230008BF230008F0
:10247000BF230008BF230008BF230008BF230008B4
:10248000BF230008B9230008B9230008BF230008B0
:10249000BF230008B9230008BF230008BF2300089A
:1024A000BF230008BF230008BF230008BF23000884
:1024B000BF230008BF230008BF230008BF23000874
:1024C000BF230008BF230008BF230008BF23000864
:1024D000BF230008BF230008BF230008BF23000854
:1024E000B9230008D8F80030D8F8042093420BD262
:1024F0005A1CC8F800201B7823EAE37388F80830D8
:10250000012388F8093075E74FF0FF33F4E7032320
:1025100084F864300025B0E663694A68934208D2C3
:102520005A1C62611B7823EAE3730B7201234B721E
:1025300072E64FF0FF33F6E70B684A68934208D221
:102540005A1C0A601B7823EAE3730B7201234B7257
:10255000FDE04FF0FF33F6E7022384F864301546C0
:1025600061E00B684A68934215D25A1C0A601B78D6
:1025700023EAE3730B7201234B72267F76B1752E2B
:1025800011D06E4A1378002B00F0CC809E4200F0F0
:10259000C8800232F6E74FF0FF33E9E7022384F800
:1025A000643000253FE000266677374624E0D4F803
:1025B00014C053689C450AD20CF1010363619CF876
:1025C000003023EAE3731372012353721BE04FF0D0
:1025D000FF33F6E7022384F86430002321E002F0A1
:1025E000DF02373AD3B20F2B15D843EA07139FB255
:1025F000002363770136F6B2032E11D804F11402DA
:10260000637F002BD3D0227F002AE3D0402AE6D874
:10261000303AD3B2E7E7032384F86430002300E0C4
:102620002B4673B91D46002D3FF427AE2768D4F81A
:1026300008C07E683C68A64240F2D48032462346F9
:10264000B7E007F520539BB2B3F5806F12D307F5BF
:1026500010539BB2B3F5806F11D30797079A2346A7
:1026600000268DF810607F2A13D88DF811200DF107
:10267000120E44E0C7F30903ADF8183063E0BDF86B
:102680001820C7F3090343EA822303F58033079335
:10269000E4E702F03F0646F080068DF811609609E7
:1026A000C2F38F121F2A06D866F03F068DF812601B
:1026B0000DF1130E23E006F03F0242F080028DF888
:1026C0001220C6F389120F2A06D862F01F028DF875
:1026D00013200DF1140E12E002F03F0242F08002CE
:1026E0008DF81320C6F3033242F0F0028DF8142067
:1026F0000DF1150E03E07E1C9E600CF807201EF8FD
:10270000012D02B3D3F804C0BCF1000FF7D09F68CD
:10271000DE68B742EFD300225A601A6801261674A9
:10272000EDE7537813B1002262771BE0032384F8AE
:102730006430002577E700BFABAAAAAA34A7010836
:10274000561CA660BB54637F002B3FF4F5AE237F7D
:1027500000226277984212D0002B3FF4FDAE5C2B32
:102760003FF4FFAE6768002FEDD0A268E668B24282
:10277000E6D300236360236801221A74E3E76268EA
:102780003AB1A368E1688B420CD2591CA1600021C8
:10279000D1546368002B7FF446AF042384F864307F
:1027A000002540E700236360236801221A74F0E7E4
:1027B00001321978107888420ED101330029F7D1FF
:1027C00094B198F8083003F0800343F0050388F8CB
:1027D0000830C8F8004050E51A780AB10133FBE729
:1027E0005C1C28E70024EBE706EB0C037B60344617
:1027F000E7E704F11401637F13B1237F002228E08F
:1028000062694B689A4208D2531C6361137823EAC9
:10281000E3730B7201234B72EFE74FF0FF33F6E7E0
:102820002846B8B33E2A35D800206077501CC0B285
:10283000224482F824300B684A68934227D25A1CFB
:102840000A601B7823EAE3730B7201234B72237F28
:1028500002462F2B01D9392BE2D95E2B01D97A2BD5
:102860000BD9402B01D95A2B09D92B2B09D02D2B51
:1028700009D02E2B09D00020D3E72846D1E72846DF
:10288000CFE72846CDE72846CBE72846C9E74FF0F3
:10289000FF33D7E7A318002183F8241094F82430DD
:1028A000742B0BD0662B1DD06E2B2FD1042A3FF436
:1028B000E4AC022384F864300025DEE498F80830A4
:1028C00003F0800343F0060388F80830012000215C
:1028D000C8E90001042A3FF4D0AC022384F8643034
:1028E0000025CAE498F8083003F0800343F006039B
:1028F00088F8083000200021C8E90001052A3FF4CB
:10290000BCAC022384F864300025B6E404F124064C
:1029100094F824302B2B04D02D2B06D101360195B1
:1029200005E001360023019301E000230193327892
:10293000A2F13003DBB2092B08D92E2A40F06181C5
:102940000020002132460295A1460AE00020002125
:1029500032460295A14604E01AEB04004BEB050158
:10296000013292F800C0ACF13003DBB2092B1DD864
:102970004FF09934A74D8D4208BF844216D34FEAD9
:10298000810E84004EEA9075241841EB050514EB86
:10299000040A45EB050B50465946DCB20025DE43E0
:1029A0004FF0FF375F4508BF5645D5D21646029D0A
:1029B0004C46BCF1000F10D00027B1F5801F08BFB6
:1029C000002822D30A220023FEF77CFB02460B4696
:1029D0001046194601373FB2EFE7019B53B198F813
:1029E000083003F0800343F00A0388F80830C8E990
:1029F000000107E198F8083003F0800343F0080372
:102A000088F80830C8E90001FCE03278A2F1300310
:102A1000DBB2092B03D801373FB20136F5E72E2A86
:102A20000FD03378652B31D0452B2FD04FF00009D4
:102A3000B94496F800A0BAF1000F00F08680002596
:102A4000E0E0013600E001363278303AD2B2092AAD
:102A5000E7D84FF0993ADFF8CCB1594508BF504557
:102A6000F1D24FEA810C83004CEA907E1B184EEBAA
:102A7000010E13EB030C4EEB0E0ED2B200231CEB37
:102A800002004EEB0301013F3FB2DCE706F1010C0F
:102A900073782D2B18D02B2B1AD000264FF000095D
:102AA0009CF80030A3F13002D2B2092A46D809EBD3
:102AB0008909303B03EB490909EB0703B3F59A7F1A
:102AC0000ADC0CF1010CEBE706F1020C2E46E5E7FF
:102AD00006F1020C0026E1E796B1019B6BB10020E4
:102AE0004FF0004198F8083003F0800343F00C03E6
:102AF00088F80830C8E9000184E000200021F1E7EF
:102B0000019BA3B100204449FEF794FE53EC102B27
:102B100010EE100A03F1004198F8083003F080032A
:102B200043F00C0388F80830C8E900016AE000208F
:102B30003949FEF77FFE51EC100BEDE71EB1C9F1EC
:102B40000009664674E7664672E7FDF78DFF0646A4
:102B50000F46B9F1000F1FDD23464C46994604E0AD
:102B600064100AF1010A5FFA8AFABCB314F0010F8B
:102B7000F6D04FEA4A03294A591C52F8210052F86C
:102B80002310FEF757FE53EC102B30463946FDF765
:102B9000A1FF06460F46E3E7C9F1000923464C466C
:102BA000994604E064100AF1010A5FFA8AFA34B324
:102BB00014F0010FF6D04FEA4A03194A591C52F893
:102BC000210052F82310FEF735FE53EC102B30464F
:102BD0003946FDF77FFF06460F46E3E74C46019B6B
:102BE00013B107F100431F4698F8083003F0800343
:102BF00043F00C0388F80830C8E9006702E04C464F
:102C0000EDE70025002D7FF438AB032384F8643012
:102C1000FFF733BB999999190000F07F40A801088C
:102C2000F8A701089999010070B5A6B004461646A8
:102C30000A684B6813441E921F9303684360C3687D
:102C400083600023037490F8203003F0800380F841
:102C5000203020AD02462846FEF7EFFD95E80F0034
:102C60008DE80F001F9B1E9A214604A8FEF7E7FD82
:102C7000183433464FF00002214604A8FFF778FAD3
:102C80009DF874303BB924932593249B43B19DF860
:102C9000740026B070BD0C4B249300232593F4E7F9
:102CA000259B13F0010FF2D19DF82C30002BEED0B4
:102CB000237A03F07F030C2B03D0082B01D00A2BBF
:102CC000E5D14FF00300E4E77117000808B54FF0B5
:102CD0000003FFF7A9FF08BD2DE9F04F87B0017A87
:102CE00001F07F010439082900F29381DFE811F037
:102CF0001B001B00090091010900910110009101C6
:102D00008E01D0E90001FDF7AFFE41EC100B82E12E
:102D1000D0E90001FDF7A8FE00EE100A01F1004322
:102D200000EE903A77E1046800218DF810102178C8
:102D30002B2904D02D2905D10134012503E00134CC
:102D4000002500E000252078A0F13001C9B2092952
:102D500007D92E2840F0888000200021CDE900010D
:102D60000BE000200021CDE9000106E012EB080194
:102D7000009143EB09010191013494F800E0AEF1B8
:102D8000300C5FFA8CFCBCF1090F27D84FF0993852
:102D9000DFF8A092DDE900ABD94508BFD0451DD3CF
:102DA0004FEA8B0A00994FEA81084AEA9179DDE9F6
:102DB00000AB18EB0A0049EB0B09021849EB0903B9
:102DC000CDE900235FFA8CF84FF000096FEA0C069A
:102DD0004FF0FF379F4208BF9642C7D2BEF1000FA7
:102DE00010D00026DDE90001B1F5801F08BF0028E2
:102DF00023D30A220023FEF765F9009001910136E2
:102E000036B2EFE765B19DF8103003F0800343F070
:102E10000A038DF81030DDE90034CDE9023423E0F7
:102E20009DF8103003F0800343F008038DF8103054
:102E3000DDE90034CDE9023416E02278A2F1300356
:102E4000DBB2092B03D8013636B20134F5E72E2A5E
:102E50000ED02378652B31D0452B2FD000231E4474
:102E60002478002C00F0878002A8FFF735FFD2E01D
:102E7000013400E001342278303AD2B2092AE8D88D
:102E80004FF09938DFF8B091DDE90001494508BFFE
:102E90004045EFD28F00830047EA907C1B184CEB33
:102EA000010CDF184CEB0C0CD2B20023B9180091C6
:102EB0004CEB03030193013E36B2DBE7671C6378FA
:102EC0002D2B05D02B2B07D04FF0000C002328E032
:102ED000A71C4FF0010CF9E7A71C4FF0000CF5E719
:102EE0000020002134E0A5B100204F49FEF7A2FCEC
:102EF00053EC102B10EE100A03F100419DF8103036
:102F000003F0800343F00C038DF81030CDE902018B
:102F1000AAE700204449FEF78DFC51EC100BEDE7C9
:102F200001373A78A2F13004E4B2092C1BD803EB44
:102F30008303303A02EB43039A19B2F59A7FEFDD2F
:102F4000BCF1000FCFD0002DCAD000204FF00041BF
:102F50009DF8103003F0800343F00C038DF810301F
:102F6000CDE9020180E7BCF1000F02D05B423C4694
:102F700075E73C4673E7DDE90001FDF775FD804626
:102F80008946002E04DC76422CE076100134E4B24F
:102F90006EB316F0010FF8D06300244A591C52F8A2
:102FA000210052F82310FEF745FC53EC102B40464D
:102FB0004946FDF78FFD80468946E6E763001C4AD7
:102FC000591C52F8210052F82310FEF733FC53EC41
:102FD000102B40464946FDF77DFD80468946761018
:102FE0000134E4B21EB116F0010FF8D0E6E715B1D6
:102FF00009F1004399469DF8103003F0800343F037
:103000000C038DF81030CDE902892DE790ED000B0F
:1030100001E09FED030B07B0BDE8F08FAFF3008038
:1030200000000000000000000000F07F40A8010840
:10303000F8A70108999999199999010000000000D1
:10304000002800F09A842DE9F04F95B00446017AEB
:1030500001F07F010439082900F28A84DFE811F0C9
:103060001D001D000900880409008804110088045F
:103070008504D4E90001FDF7F7FC41EC100B00F0EA
:1030800079BCD4E90001FDF7EFFC00EE100A01F174
:10309000004300EE903A00F06DBC246800218DF8EA
:1030A000281021782B2905D02D2907D101340121A1
:1030B000019105E001340021019101E0002101911D
:1030C0002078A0F13001C9B2092904D92E2877D17E
:1030D0000020002107E00020002104E012EB08009E
:1030E00043EB0901013494F800C0ACF1300E5FFAF3
:1030F0008EFEBEF1090F20D84FF09938DFF88C947E
:10310000894508BF804518D34FEA8109850049EAFF
:1031100090782D1848EB01086A1948EB080310460F
:1031200019465FFA8EF84FF000096FEA0E064FF06D
:10313000FF379F4208BF9642D0D2BCF1000F10D09B
:103140000026B1F5801F08BF002822D30A220023E1
:10315000FDF7B8FF02460B4610461946013636B257
:10316000EFE7019B53B19DF8283003F0800343F053
:103170000A038DF82830CDE9080121E09DF82830B8
:1031800003F0800343F008038DF82830CDE90801EF
:1031900016E02278A2F13003DBB2092B03D8013606
:1031A00036B20134F5E72E2A1DD02378652B3BD0AB
:1031B000452B39D0002535442478002C00F08B8035
:1031C0009DF8283003F07F03043B082B00F2CA83EC
:1031D000DFE813F0DD00DD00CB00C803CB00C8033F
:1031E000D200C803C503013400E001342278303A2C
:1031F000D2B2092AD9D84FF09938DFF894934945CB
:1032000008BF4045F1D28D00830045EA90771B1836
:1032100041EB0707DD187F41D2B20023A81847EB26
:103220000301013E36B2E0E7671C63782D2B14D012
:103230002B2B15D0002400253B78A3F13002D2B20D
:10324000092A42D805EB8505303B03EB4505AB1950
:10325000B3F59A7F07DC0137EEE7A71C0124EAE704
:10326000A71C0024E7E794B1019B6BB100204FF04D
:1032700000419DF8283003F0800343F00C038DF8E3
:103280002830CDE908019BE700200021F1E7019BF0
:10329000A3B10020BA49FEF7CDFA53EC102B10EE83
:1032A000100A03F100419DF8283003F0800343F039
:1032B0000C038DF82830CDE9080181E70020B049E2
:1032C000FEF7B8FA51EC100BEDE714B16D423C4635
:1032D00071E73C466FE7FDF7C7FB06460F46002D3A
:1032E00004DC6D421BE06D100134E4B26DB315F0E7
:1032F000010FF8D06300A34A591C52F8210052F87C
:103300002310FEF797FA53EC102B30463946FDF7A1
:10331000E1FB06460F46E6E76D100134E4B2A5B1C5
:1033200015F0010FF8D06300974A591C52F821009C
:1033300052F82310FEF77EFA53EC102B3046394634
:10334000FDF7C8FB06460F46E6E7019B13B107F100
:1033500000431F469DF8283003F0800343F00C0320
:103360008DF82830CDE908672AE7DDE90801FDF787
:103370007BFB41EC100BFDE2DDE90801FDF774FB7E
:1033800000EE100A01F1004300EE903AF2E2089CD0
:1033900000238DF8383023782B2B04D02D2B05D12A
:1033A0000134012503E00134002500E000252278E6
:1033B000A2F13003DBB2092B04D92E2A73D10020ED
:1033C000002101E00020002194F800C0ACF130029F
:1033D000D2B2092A26D84FF09938DFF8B091894542
:1033E00008BF80451ED34FEA8108830048EA907EDB
:1033F0001B184EEB010E13EB030A4EEB0E0B50465F
:1034000059465FFA82F84FF00009D6434FF0FF3774
:103410005F4508BF564505D31AEB08004BEB090181
:103420000134D1E7674687B10027B1F5801F08BF97
:10343000002821D30A220023FDF744FE02460B4652
:103440001046194601373FB2EFE755B19DF83830C5
:1034500003F0800343F00A038DF83830CDE90C0106
:1034600021E09DF8383003F0800343F008038DF825
:103470003830CDE90C0116E02278A2F13003DBB23E
:10348000092B03D801373FB20134F5E72E2A1DD0AE
:103490002378652B3CD0452B3AD000263E44247837
:1034A000002C00F09A809DF8383003F07F03043B35
:1034B000082B00F25182DFE813F0EB00EB00D9009B
:1034C0004F02D9004F02E0004F024C02013400E0ED
:1034D00001342278303AD2B2092AD9D84FF099383B
:1034E000DFF8AC90494508BF4045F1D28E0083001B
:1034F00046EA907C1B184CEB010CDE184CEB0C0CD4
:10350000D2B20023B0184CEB0301013F3FB2DFE71A
:1035100004F1010C63782D2B16D02B2B18D000242E
:1035200000269CF80030A3F13002D2B2092A4ED80E
:1035300006EB8606303B03EB4606F319B3F59A7F9C
:103540000ADC0CF1010CECE704F1020C0124E7E7C2
:1035500004F1020C0024E3E7E4B16DB100204FF068
:1035600000419DF8383003F0800343F00C038DF8E0
:103570003830CDE90C0196E700200021F1E700BFCB
:103580000000F07F40A80108F8A70108999999194F
:1035900099990100A5B10020C149FEF74BF951EC02
:1035A000100B10EE102A01F100439DF8381001F0C5
:1035B000800141F00C018DF83810CDE90C2372E741
:1035C0000020B749FEF736F953EC102BEDE714B1A4
:1035D0007642644662E7644660E7FDF745FA804656
:1035E0008946002E04DC76421BE076100134E4B2FA
:1035F0006EB316F0010FF8D06300AA4A591C52F8B6
:10360000210052F82310FEF715F953EC102B404619
:103610004946FDF75FFA80468946E6E776100134B1
:10362000E4B2A6B116F0010FF8D063009E4A591C0F
:1036300052F8210052F82310FEF7FCF853EC102B3F
:1036400040464946FDF746FA80468946E6E715B109
:1036500009F1004399469DF8383003F0800343F0A8
:103660000C038DF83830CDE90C891CE7DDE90C013D
:10367000FDF7FAF941EC100B7CE1DDE90C01FDF7F7
:10368000F3F900EE100A01F1004300EE903A71E107
:103690000C9C00238DF8483023782B2B04D02D2B45
:1036A00005D10134012503E00134002500E00025A7
:1036B0002278A2F13003DBB2092B04D92E2A74D16F
:1036C0000020002101E00020002194F800C0ACF1AE
:1036D0003002D2B2092A26D84FF0993ADFF8CCB19D
:1036E0008B4508BF82451ED34FEA810A83004AEA10
:1036F000907E1B184EEB010EDE184EEB0E07304687
:1037000039465FFA82FA4FF0000B6FEA02084FF079
:10371000FF39B94508BFB04505D316EB0A0047EBA2
:103720000B010134D1E7674687B10026B1F5801F50
:1037300008BF002821D30A220023FDF7C3FC02465C
:103740000B4610461946013636B2EFE755B19DF8E3
:10375000483003F0800343F00A038DF84830CDE988
:10376000100122E09DF8483003F0800343F0080385
:103770008DF84830CDE9100117E02278A2F130032E
:10378000DBB2092B03D8013636B20134F5E72E2A15
:103790000FD02378652B2ED0452B2CD02746002325
:1037A0001E443C78002C00F08B8010A8FFF794FAA0
:1037B000E0E0013400E001342278303AD2B2092A44
:1037C000E7D84FF09938DFF8E890494508BF404501
:1037D000F1D28F00830047EA907C1B184CEB010C60
:1037E000DF184CEB0C0CD2B20023B8184CEB0301E1
:1037F000013E36B2DFE7671C63782D2B15D02B2BEB
:1038000017D04FF0000C00233A78A2F13004E4B254
:10381000092C4FD803EB8303303A02EB43039A1988
:10382000B2F59A7F09DC0137EEE7A71C4FF0010CD7
:10383000E9E7A71C4FF0000CE5E7BCF1000F11D041
:103840006DB100204FF000419DF8483003F0800337
:1038500043F00C038DF84830CDE91001A5E70020B6
:103860000021F1E7A5B100200D49FDF7E3FF51EC80
:10387000100B10EE102A01F100439DF8481001F0E2
:10388000800141F00C018DF84810CDE910238CE740
:1038900000200349FDF7CEFF53EC102BEDE700BFEE
:1038A0000000F07F40A80108F8A70108999999192C
:1038B00099990100BCF1000F3FF472AF5B426FE7D2
:1038C000FDF7D2F880468946002E04DC76421BE0E4
:1038D00076100134E4B26EB316F0010FF8D0630035
:1038E000294A591C52F8210052F82310FDF7A2FF73
:1038F00053EC102B40464946FDF7ECF880468946CC
:10390000E6E776100134E4B2A6B116F0010FF8D064
:1039100063001E4A591C52F8210052F82310FDF78B
:1039200089FF53EC102B40464946FDF7D3F88046FB
:103930008946E6E715B109F1004399469DF84830FC
:1039400003F0800343F00C038DF84830CDE9108973
:103950002BE79DED0C0B0DE09FED090B0AE09DEDB3
:10396000080B07E09FED060B04E094ED000B01E06F
:103970009FED030B15B0BDE8F08F9FED010B704775
:10398000000000000000000040A80108F8A701089E
:1039900010B551EC100B4FF0010410EE102A0B463D
:1039A000FDF700FB08B14FF0000404F0010010BD6A
:1039B00038B555EC104B0022002310EE100A2946B2
:1039C000FDF7F0FA60B922462B4620462946FCF75F
:1039D000CBFE22462B46FDF7E5FA10B1012000E0B0
:1039E000002038BD000000002DE9F04F8DB00646E4
:1039F00055EC104BFFF7CCFFF8B945EC104BFFF737
:103A0000D7FF80BB0022002320462946FDF7D4FAC9
:103A100000283ED109238DF82E30DDA3D3E9002301
:103A200020462946FDF7DCFA002800F089804FF493
:103A300080794FF0080800276BE030684368C3F1D5
:103A40007F5303F57F1303F57F533F33032B07D9D0
:103A50000422C94908F0DEF97368043373604FE14A
:103A6000C64808F003F830684368C3F17F5303F594
:103A70007F1303F57F533F33032B07D90422BE493D
:103A800008F0C8F973680433736039E1BB4807F084
:103A9000EDFF3768D7F8049009F101083B4653F869
:103AA000082B9A4213D0BB68984512D83B682D2248
:103AB00003F80920C7F804803B68002203F80820B7
:103AC00073680133736005F100431D46A2E70F23BD
:103AD000EAE70123009300231A464946384608F0D6
:103AE00037F8E3E7A64B53F82B0053F82A10FDF7FD
:103AF000A1FE53EC102B20462946FCF7EBFF0446B1
:103B00000D464F443FB24FEA690908F1FF384FFABA
:103B100088F8B8F1000F18DB4FEA480A994B0AF110
:103B2000010B53F82B0053F82A10FDF783FE51ECDC
:103B3000100B22462B46FDF749FA0028E3D0D1E7C7
:103B40004FF480794FF00808002700220023204618
:103B50002946FDF74FFA38B185A3D3E90023204663
:103B60002946FDF733FA00BBADF82C7020462946F4
:103B7000FDF788FA814609900346DFF81C82092B7D
:103B80003CD98149A1FB08284FEAD8089DF82E208E
:103B9000013A8DF82E20A1FB0323DB08EFE74FEA63
:103BA000690908F1FF384FFA88F8B8F1000FDBDB3C
:103BB0004FEA480A754B0AF1010B53F82B0053F8F2
:103BC0002A10FDF737FE51EC100B22462B46FDF76D
:103BD00011FA0028E3D06B4B53F82B0053F82A104E
:103BE000FDF728FE53EC102B20462946FCF772FF08
:103BF00004460D46A7EB09073FB2D0E74846FCF75D
:103C0000EFFE02460B4620462946FCF7ABFD044674
:103C10000D464046FCF7E4FE02460B462046294688
:103C2000FCF758FF04460D46FDF72CFA8246FCF7D8
:103C3000D7FE02460B4620462946FCF793FD024676
:103C40000B46FCF791FDFDF71DFA50440A908045A4
:103C50000CD800230A9309F10100099037B1092813
:103C600004D90137ADF82C70012309930A9A464B09
:103C7000A3FB0213DB0803EB8303B2EB430F0CD16E
:103C80009DF92E30002B08DD3F49A1FB0212D2081E
:103C90000A92013B8DF82E30E8E7099A0DF12201D6
:103CA000394BA3FB0203DB08184603EB8303A2EBAB
:103CB0004303303301F8013D13460246092BEFD888
:103CC0000DF12204641A30684368C3F17F5303F591
:103CD0007F1303F57F533F339C4214D8224608F0EC
:103CE00099F873681C4474609DF92E3073B9BDF95E
:103CF0002C30002B52DBBDF92C30002B00F39180CF
:103D00000DB0BDE8F08F1D4807F0B0FE0A9907A876
:103D10000DE01D4BA3FB0143DB081C4603EB8303B3
:103D2000A1EB4303303300F8013D214613465A1EF0
:103D300052B2002BEDD1411E2E2300F8013C07ACFE
:103D4000641A30684368C3F17F5303F57F1303F5AA
:103D50007F533F339C4206D8224608F05BF87368D5
:103D60001C447460C3E7054807F080FEAFF3008091
:103D7000F168E388B5F8E43E60A7010848A70108A8
:103D8000F8A7010840A80108CDCCCCCCB0A7010809
:103D900000000000D012634100CA9A3B30684368BB
:103DA000C3F17F5303F57F1303F57F533F33012B9B
:103DB00031D90222414908F02DF87368023373604B
:103DC000BDF92C2052420DF122013D4880FB02300A
:103DD000D317C3EBA003184603EB8303A2EB430303
:103DE000303301F8013D02460028EED10DF12204E6
:103DF000641A30684368C3F17F5303F57F1303F5FA
:103E00007F533F339C4209D8224608F003F8736879
:103E10001C4474606FE72B4807F028FE294807F020
:103E200025FE346867687D1C234653F8082B9A42A8
:103E300036D0A3689D4235D823686522DA5565607F
:103E4000236800225A55736801337360BDF92C3022
:103E50000DF122011A4880FB0320DA17C2EBA00201
:103E600002EB8200A3EB40031BB2303301F8013DAB
:103E700013B2002BEED10DF12204641A30684368AE
:103E8000C3F17F5303F57F1303F57F533F339C4208
:103E900011D8224607F0BEFF73681C4474602FE7F8
:103EA0000F23C7E70123009300231A463946204613
:103EB00007F04EFEC0E7034807F0D8FD68A70108E9
:103EC0006766666648A701082DE9F04F89B0064687
:103ED0000C46037A03F07F03023B3E2B00F2C683BD
:103EE000DFE813F0EB02EB02210221029303C4038B
:103EF0005D03C4030203C4033F00C403C403C4033B
:103F0000C403C403C403C403C403C403C403C40379
:103F1000C403C403C403C403C403C403C403C40369
:103F2000BD00C403C403C403C403C403C403C40363
:103F3000C403C403C403C403C403C403C403C40349
:103F4000C403C403C403C403C403C403C403C40339
:103F5000C403C403C403C403C403C403C403C40329
:103F6000480090ED000B0846FFF73EFD606809B081
:103F7000BDE8F08F0D68D5F8048008F101072B46E5
:103F800053F8082B9A420FD0AB689F420ED82B688B
:103F90005B2203F808206F602B680022DA55636803
:103FA00001336360356817E00F23EEE701230093C8
:103FB00000231A464146284607F0CAFDE7E70F23CB
:103FC00021E033682C2203F8082077603368002250
:103FD000DA5563680133636005B321462846FFF76D
:103FE00073FFEB68D3B103EB430315EBC30515D0A7
:103FF0002668D6F8048008F10107334653F8082BE9
:104000009A42DCD0B3689F42DBD90123009300239E
:104010001A464146304607F09BFDD2E725686F6897
:104020007E1C2B4653F8082B9A420DD0AB689E425B
:104030000CD82B685D22DA556E602B6800229A55E9
:1040400060680130606092E70F23F0E7012300937E
:1040500000231A463946284607F07AFDE9E70D683D
:10406000D5F8048008F101072B4653F8082B9A4233
:1040700010D0AB689F420FD82B687B2203F8082032
:104080006F602B680022DA55636801336360D6F8ED
:104090000080E3E00F23EDE70123009300231A469D
:1040A0004146284607F054FDE6E70F23E8E00123E8
:1040B000009300231A465146304607F049FDE2E0DE
:1040C000B9F1000F59D02E68D6F804B00BF1010AEF
:1040D000334653F8082B9A4239D0B3689A4538D8FA
:1040E00033685C2203F80B20C6F804A03368002272
:1040F00003F80A206B6801336B602E68D6F804B0B1
:104100000BF1010A334653F8082B9A422AD0B368C0
:104110009A4529D8336803F80B90C6F804A0336891
:10412000002203F80A206B6801336B6097F800A047
:10413000BAF1000F46D00137B74B93F80090B9F1B0
:10414000000FBDD05A789245BAD00233F5E70F235D
:10415000C4E70123009300231A465946304607F06E
:10416000F7FCBDE70F23D3E70123009300231A4692
:104170005946304607F0ECFCCCE72E68D6F804B080
:104180000BF10109334653F8082B9A420FD0B3685C
:1041900099450ED8336803F80BA0C6F8049033682D
:1041A000002203F809206B6801336B60BEE70F2320
:1041B000EEE70123009300231A465946304607F0E4
:1041C000C7FCE7E725686F687E1C2B4653F8082B71
:1041D0009A4266D0AB689E4265D82B682222DA5597
:1041E0006E602B6800229A5563680133636025680E
:1041F0006F687E1C2B4653F8082B9A425CD0AB6844
:104200009E425BD82B683A22DA556E602B680022FA
:104210009A5563680133636021464046FFF754FEB8
:10422000D8F80C30002B5DD003EB430318EBC30828
:1042300058D025686F687E1C2B4653F8082B9A428D
:1042400045D0AB689E4244D82B682C22DA556E606C
:104250002B6800229A55636801336360B8F1000F40
:1042600040D02546D8F810702668D6F804A00AF188
:104270000109334653F8082B9A423FF416AFB3684E
:1042800099453FF614AF3368222203F80A20C6F896
:1042900004903368002203F80920636801336360E7
:1042A00044E70F2397E70123009300231A4639467A
:1042B000284607F04DFC90E70F23A1E70123009368
:1042C00000231A463946284607F042FC9AE70F2396
:1042D000B8E70123009300231A463946284607F021
:1042E00037FCB1E725686F687E1C2B4653F8082B16
:1042F0009A420DD0AB689E420CD82B687D22DA55CD
:104300006E602B6800229A556068013060602EE66E
:104310000F23F0E70123009300231A46394628466D
:1043200007F016FCE9E7D0F800800D460E68D6F8D5
:10433000049009F10107334653F8082B9A420ED036
:10434000B3689F420DD83368222203F809207760B2
:1043500033680022DA556368013363603FE00F235E
:10436000EFE70123009300231A464946304607F041
:10437000EFFBE8E7002F5AD02E68D6F804A00AF128
:104380000109334653F8082B9A4237D0B368994550
:1043900036D833685C2203F80A20C6F804903368E4
:1043A000002203F809206B6801336B602E68D6F891
:1043B00004A00AF10109334653F8082B9A4228D089
:1043C000B36899452AD8336803F80A70C6F8049090
:1043D0003368002203F809206B6801336B6098F89A
:1043E0000060002E48D008F101080B4B1F78002F09
:1043F000C0D05A789642BDD00233F7E70F23C6E704
:104400000123009300231A465146304607F0A0FBD3
:10441000BFE70F23D5E700BF36A7010801230093AC
:1044200000231A465146304607F092FBCBE72F682F
:10443000D7F804A00AF101093B4653F8082B9A4229
:104440000FD0BB6899450ED83B6803F80A60C7F8DF
:1044500004903B68002203F809206B6801336B600D
:10446000BDE70F23EEE70123009300231A465146D0
:10447000384607F06DFBE7E725686F687E1C2B4622
:1044800053F8082B9A420DD0AB689E420CD82B688B
:104490002222DA556E602B6800229A55606801303E
:1044A000606064E50F23F0E70123009300231A46C0
:1044B0003946284607F04CFBE9E701684568206863
:1044C0004368C3F17F5303F57F1303F57F533F33F5
:1044D0009D4206D82A4607F09DFC6068284460602B
:1044E00045E56D4807F0C2FA056846680F68D7F8D9
:1044F000049009F101083B4653F8082B9A4240D03A
:10450000BB6898453FD83B682D2203F80920C7F8BF
:1045100004803B68002203F808206368013363606D
:104520000DF11E070A22002328463146FCF7CAFD7A
:10453000303207F8012DA846B1460A22002328464A
:104540003146FCF7BFFD05460E46B9F1000F08BF26
:10455000B8F10A0FE6D20DF11E05ED1B2068436885
:10456000C3F17F5303F57F1303F57F533F339D4220
:1045700012D82A46394607F04DFC6068284460602E
:10458000F5E40F23BDE70123009300231A464946B3
:10459000384607F0DDFAB6E73F4807F067FAD0F88B
:1045A000009045680DF11E080A220023484629465E
:1045B000FCF788FD303208F8012D4E462F460A22BE
:1045C000002348462946FCF77DFD81460D46002F15
:1045D00008BF0A2EE8D20DF11E05A5EB08052068DC
:1045E0004368C3F17F5303F57F1303F57F533F33D4
:1045F0009D4207D82A46414607F00CFC60682844D3
:104600006060B4E4244807F031FA02684368134359
:1046100016D008684368C3F17F5303F57F1303F591
:104620007F533F33032B08D904221C4907F0F2FBC8
:10463000636804336360606899E4174807F016FA0A
:1046400008684368C3F17F5303F57F1303F57F5375
:104650003F33042B07D90522114907F0DBFB6368C0
:1046600005336360E7E70C4807F000FA0868436821
:10467000C3F17F5303F57F1303F57F533F33032BC0
:1046800007D90422074907F0C5FB60680430606061
:104690006DE4014807F0EAF948A701086CA7010892
:1046A00074A7010860A7010800B585B00191002337
:1046B0000293006828B101A9FFF706FC05B05DF878
:1046C00004FB01984368C3F17F5303F57F1303F59F
:1046D0007F533F33032B06D90422044907F09AFB8A
:1046E00002980430EAE7024807F0C0F960A7010821
:1046F00048A7010808B5FFF7D7FF08BD08B5FFF7C1
:10470000F9FF08BD70B588B004460A46C1B10B7AFE
:1047100003F07F03043B012B12D80D6885B100F133
:104720000803036055B12846FBF7AAFF2A184FF08B
:10473000000329462046FCF725FF18E06A1EF6E72D
:1047400003AB0193002302938DF80C30079201A96B
:1047500007A8FFF7D3FF04F108052560019B03AA12
:10476000934207D02360039BA360029B63602046B3
:1047700008B070BD16460FCEA060E1602261636193
:10478000F3E7019803AB984201D006F0CBFB06F0AB
:10479000CDFB00002DE9F047ADF5415D8CB006463C
:1047A000154616AB0C930D930DF5415318330E932C
:1047B0000F9300238DF840309DF8503003F08003B4
:1047C0008DF850304FF032020CA8FEF77FFA044605
:1047D000C3B22BB120460DF5415D0CB0BDE8F087AA
:1047E00005F1100A9DF8503013F0200F1ED0DFF8AD
:1047F0006892129F07E00020C8B1FB68A3B103EBE9
:10480000430307EBC30797B139694945F3D0B9F1C1
:10481000000F04D031B14846FBF7C6FDECE74FF07E
:10482000FF30E9E70120E7E7002700E000270CAAB6
:1048300039460DF541501830FFF764FF28690AF139
:1048400008020DF54153183319680DF54153203313
:10485000994239D090424DD0DAF8088029610DF59F
:1048600041531C331B68CAF804300DF54153203303
:104870001B68CAF8083000283ED00DF541531833A4
:1048800018600DF541532033C3F8008000230DF567
:1048900041521C3213600DF54152183212681370E8
:1048A0000DF54153183318680DF5415320339842E4
:1048B00001D006F037FB9DF8503013F0200F3ED0AA
:1048C000DFF89881129F27E00DF541531C331A68D9
:1048D0001AB1012A0BD0FBF7C3FC0DF541531C3371
:1048E0001B68CAF804302A690021D154CEE70B783E
:1048F0000370F2E70020B1E70DF5415320330DF5C9
:10490000415218321360C1E70020C8B1FB68A3B15F
:1049100003EB430307EBC30797B139694145F3D074
:10492000B8F1000F04D031B14046FBF73DFDECE794
:104930004FF0FF30E9E70120E7E7002700E000271C
:104940000CA93846FEF77CFB85ED020B9DF8503034
:1049500013F0200F1ED0DFF80881129F07E000201F
:10496000C8B1FB68A3B103EB430307EBC30797B1DF
:1049700039694145F3D0B8F1000F04D031B1404658
:10498000FBF712FDECE74FF0FF30E9E70120E7E726
:10499000002700E000270CAA39466846FFF7B2FE60
:1049A0002B49684607F060FA50B90123AB629DF8C5
:1049B000503013F0200F29D0DFF8A880129F12E0AA
:1049C0002449684607F050FA10B90223AB62EEE7BB
:1049D0000123AB62EBE70020C8B1FB68A3B103EB96
:1049E000430307EBC30797B139694145F3D0B8F1E9
:1049F000000F04D031B14046FBF7D6FCECE74FF096
:104A0000FF30E9E70120E7E7002700E000270CAAD4
:104A10003946A2F11800FFF775FE2A4606A930466E
:104A2000FCF7A8FE069808AB984201D006F07AFA87
:104A3000009802AB98423FF4CDAE06F073FAC9E697
:104A4000009802AB984201D006F06CFA06F06EFABC
:104A500094A7010898A701087CA7010884A701086A
:104A60008CA701089CA7010800B585B0019100231F
:104A70000293183005D001A9FFF726FA05B05DF8BA
:104A800004FB01984368C3F17F5303F57F1303F5DB
:104A90007F533F33032B06D90422044907F0BAF9A8
:104AA00002980430EAE7024806F0E0FF60A7010838
:104AB00048A7010808B5FFF7D7FF08BD08B5FFF7FD
:104AC000F9FF08BD2DE9F041ADF5446D05461646E8
:104AD0000DF628420DF54363CDF8283C0023CDF8B0
:104AE0002C3C8DF8303C0AA900910191029203926E
:104AF0008DF810309DF8203003F0800343F0200340
:104B00008DF820300023069307939DF8203013F092
:104B1000200F00F09880994F3C46EFB1B846002432
:104B200007E00020B8B1E368A3B103EB430304EB53
:104B3000C30484B121694145F3D0B8F1000F04D01A
:104B400031B14046FBF730FCECE74FF0FF30E9E7CE
:104B50000120E7E700242CB33CB1237A03F0800363
:104B600043F004032372864B2360DFF81C829DF818
:104B7000203013F07F0F08D103F0800343F02003AF
:104B80008DF820300023069307939DF8203013F012
:104B9000200F00F0DA804446B8F1000F6FD047468E
:104BA000069C5CE0019B03F11802029B9A421AD812
:104BB000A3F1180402947CB1079AC2B1A11AC810DB
:104BC000704901FB00F1D1600794002243F80C2CDE
:104BD00003F8102C43F8082C64B1237A03F07F0308
:104BE00023722761B8E701238DF81030F4E70694AB
:104BF0000794EAE7002CAFD0069A03E023469C42D4
:104C000009D01A463AB1D368002BF7D003EB43031F
:104C100002EBC303F3E7E3687BB103EB430304EB6D
:104C2000C30372B15BB1991AC810564901FB00F178
:104C3000D160002B90D107928EE72346F1E7002147
:104C4000F6E70693F5E7002486E73846FBF7ACFB6A
:104C5000A0B1E3688BB103EB430304EBC3046CB175
:104C60002169B94204D02FB10029EED10120EFE72C
:104C70000020EDE74FF0FF30EAE700249CB1002C64
:104C800075D0D6F800E0009A019F974265D9714629
:104C90001346187891F800C0844558D10133002894
:104CA0005CD00131F5E7019B03F11802029B9A42A7
:104CB0001BD8A3F1180402947CB1079ACAB1A11AB7
:104CC000C810304901FB00F1D1600794002243F87D
:104CD0000C2C03F8102C43F8082C6CB1237A03F049
:104CE0007F032372C4F81080C9E701238DF81030C8
:104CF000F3E706940794E9E7002CC0D0069A03E096
:104D000023469C4209D01A463AB1D368002BF7D00B
:104D100003EB430302EBC303F3E7E3687BB103EB6D
:104D2000430304EBC30372B15BB1991AC810154970
:104D300001FB00F1D160002BA1D107929FE7234630
:104D4000F1E70021F6E70693F5E7002497E71A78E4
:104D50000AB10133FBE75A1C96E70022B2B17AB3DD
:104D6000237A03F0800343F00503237222600DF6DB
:104D700028416846FFF7A2FE27E000BF9CA7010874
:104D800014A70108ABAAAAAA7CA70108D6F8048038
:104D900008F101033B4402998B420BD801936FB198
:104DA000424631683846FBF75BFA002307F80830C3
:104DB0003A46D4E701238DF81030D0E73A46CEE7E3
:104DC000237A03F080032372D1E705F108042C60F5
:104DD000DDF8281C4FF00003DDF82C2C0A4428468F
:104DE000FCF752FD6A686FF040439A4205D00122F9
:104DF0001249284607F00EF811E0114806F036FE79
:104E00002868844201D006F08DF8DDF8280C0DF5F5
:104E10004363984201D006F085F806F087F8DDF884
:104E2000280C0DF54363984201D006F07BF8284624
:104E30000DF5446DBDE8F081E7E700BFE8AB010880
:104E400048A7010800B585B00191002302931830EE
:104E500005D001A9FFF738F805B05DF804FB01980B
:104E60004368C3F17F5303F57F1303F57F533F334B
:104E7000032B06D90422044906F0CCFF0298043023
:104E8000EAE7024806F0F2FD60A7010848A701081A
:104E900008B5FFF7D7FF08BD08B5FFF7F9FF08BD54
:104EA000F0B5ADF5457D0546BEAAC0ABBE93002367
:104EB000BF938DF800330AA90091019102920392E9
:104EC0008DF810309DF8203003F0800343F020036C
:104ED0008DF820300023069307939DF8203013F0BF
:104EE000200F00F09580954E3446E6B137460024F9
:104EF00009E03846FBF758FAA0B1E3688BB103EB41
:104F0000430304EBC3046CB12169B94204D02FB14F
:104F10000029EED10120EFE70020EDE74FF0FF3050
:104F2000EAE700241CB33CB1237A03F0800343F08A
:104F300004032372824B2360824E9DF8203013F0CD
:104F40007F0F08D103F0800343F020038DF8203059
:104F50000023069307939DF8203013F0200F00F0F4
:104F6000D1803446002E6ED03746069C5AE0019B15
:104F700003F11802029B9A421AD8A3F11804029472
:104F80007CB1079AC2B1A11AC8106F4901FB00F1A8
:104F9000D1600794002243F80C2C03F8102C43F83E
:104FA000082C64B1237A03F07F0323722661BAE7E9
:104FB00001238DF81030F4E706940794EAE7002CFB
:104FC000B1D0069A03E023469C4209D01A463AB172
:104FD000D368002BF7D003EB430302EBC303F3E7E3
:104FE000E3687BB103EB430304EBC30372B15BB132
:104FF000991AC810544901FB00F1D160002B92D1DD
:10500000079290E72346F1E70021F6E70693F5E7DC
:10501000002488E70020A8B1E36893B103EB4303C1
:1050200004EBC30474B12169B942F3D027B131B1A3
:105030003846FBF7B9F9EEE74FF0FF30EBE7012018
:10504000E9E700246CB13CB1237A03F0800343F01C
:10505000040323723D4B2360BEA96846FFF71CFF83
:1050600052E0019B03F11802029B9A421AD8A3F165
:10507000180402947CB1079AC2B1A11AC81032492F
:1050800001FB00F1D1600794002243F80C2C03F8D7
:10509000102C43F8082C64B1237A03F07F032372A9
:1050A0002661D0E701238DF81030F4E706940794C9
:1050B000EAE7002CC7D0069A03E023469C4209D0B9
:1050C0001A463AB1D368002BF7D003EB430302EB47
:1050D000C303F3E7E3687BB103EB430304EBC303D0
:1050E00072B15BB1991AC810174901FB00F1D16088
:1050F000002BA8D10792A6E72346F1E70021F6E7A7
:105100000693F5E700249EE705F108042C60BE999C
:105110004FF00003BF9A0A442846FCF7B5FB6A68C3
:105120006FF040439A4205D001220949284606F013
:1051300071FE1EE0074806F099FC00BF9CA701081D
:1051400024A701087CA70108ABAAAAAAA4A7010862
:10515000E8AB010848A701082868844201D005F09F
:10516000E1FEBE98C0AB984201D005F0DBFE05F031
:10517000DDFEBE98C0AB984201D005F0D3FE2846B4
:105180000DF5457DF0BDECE702230360704700009C
:1051900010B5224B9B6913B9204A526A2AB1012BE0
:1051A0000ED0E3B1012B29D010BD1D4C01212046AA
:1051B000FCF77CF9002104F10C00FCF777F9F3E728
:1051C000164A526A002AECD1154C00212046FCF701
:1051D0006DF9012104F10C00FCF768F9E4E70F4ACE
:1051E000526A012ADED10E4C01212046FCF75EF9FD
:1051F000012104F10C00FCF759F9D5E7074B5B6A74
:10520000012BD1D1064C00212046FCF74FF900219B
:1052100004F10C00FCF74AF9C6E700BF6C0B002054
:10522000840B002000B583B001910368022B02D0EB
:1052300003B05DF804FB9DF80630002BF8D0FFF7B3
:10524000A7FFF5E72DE9F04104460F46164608464C
:10525000FBF716FA054604F10808C4F8008000239D
:105260006360237271680144204606F0C7FC6368DE
:10527000C3F17F5303F57F1303F57F533F339D4203
:1052800005D82A463946204606F0C4FD09E00948FB
:1052900006F0ECFB2068804501D005F043FE05F0E8
:1052A00045FE72683168204606F0B4FD2046BDE830
:1052B000F08100BF48A7010808B4F0B582B000AF84
:1052C00004460E46114607F11C0353F8042BC81D73
:1052D00020F00700ADEB000D6D467B602846B0471F
:1052E00004F1080323604FF000032A1829462046E2
:1052F000FCF7CAFA20460837BD46BDE8F04001B0C9
:1053000070470000974B1B78012B00D0704770B599
:10531000D8B004AB0293002303938DF810306423BC
:105320000A2291491AA800F03BFA02981A991CAB7C
:10533000994221D004AB98422DD0049D02911B9B31
:1053400003931C9B049340B31A901C9500231B935A
:105350001A9A13701A981CAB984201D005F0E2FD1E
:1053600014AB1293002313938DF850300EAA02A9A8
:105370007E48FFF70FFA13E01B9A1AB1012A07D0F3
:10538000FAF76EFF1B9B0393029A0021D154DDE7CD
:105390000B780370F6E70020D0E71CAB1A93D5E733
:1053A000C0B2A8B9002320932193209BABB1704BCE
:1053B00053F8204054AB5293C4B12046FBF760F938
:1053C00022184FF00003214652A8FCF7DBF80FE04B
:1053D000684B209300232193E7E7219B13F0010FF3
:1053E000E5D1624922A8FFF75BFD07E0621EE8E70E
:1053F00052AA5E494CA8FFF765FB44E122A95A482E
:1054000000F0B2F9229824AB984201D005F08AFD51
:105410000E9B002B40F047810AAB089356494FF092
:1054200000030A4608A8FCF7ADF8DDE91023CDE932
:105430000023524B4FF4A472514928A8FFF73CFFB8
:10544000089828992AAB99421BD00AAB984227D0DA
:105450000A9C0891299B09932A9B0A9310B32890D0
:105460002A9400232993289A137028982AAB9842EB
:1054700001D005F057FD08AA424940A8FFF7E2FE17
:1054800013E0299A1AB1012A07D0FAF7E9FE299BFD
:105490000993089A0021D154E3E70B780370F6E7EB
:1054A0000020D6E72AAB2893DBE7419A6FF0404310
:1054B0009A4205D00122344940A806F0ABFC03E033
:1054C000324806F0D3FA28E104463CAB3A9305464D
:1054D00055F8083BAB4218D03A9383683C93636815
:1054E0003B9325600023636023723B9BC3F17F5392
:1054F00003F57F1303F57F533F33032B0CD90422AD
:1055000023493AA806F086FC0AE03CAE28686968A0
:10551000AA68EB680FC6E2E71C4806F0A7FAF6E0B7
:10552000044636AB3493054655F8083BAB4211D0E0
:1055300034938368369363683593256000236360F2
:105540002372189B0093134B10220D4946A8FFF7B6
:10555000B3FE21E036AE28686968AA68EB680FC61A
:10556000E9E700BF240C0020200C0020A00B002045
:10557000040000207117000844A7010888A801084A
:10558000716301088CA80108E8AB010848A701086D
:1055900094A801089CA801083598479A8118349B63
:1055A00036ACA3420ED0369CA14206D9469D48ACEB
:1055B000A54209D0489CA14208D9469934A806F0D2
:1055C00029FC0DE00F24EFE70F24F4E7479A02B11E
:1055D00000220090002146A806F054FB044600E09B
:1055E000044630AB2E93254655F8083BAB420DD010
:1055F0002E93A368309363682F9325600023636024
:105600002B702EA9554800F0AFF806E030AE2868A0
:105610006968AA68EB680FC6EDE72E9830AB984230
:1056200001D005F07FFC469848AB984201D005F0C8
:1056300079FC349836AB984201D005F073FC3A9867
:105640003CAB984201D005F06DFC409842AB9842CB
:1056500001D005F067FC189B012B08D0022B0CD061
:1056600008980AAB98421ED005F05CFC1BE09DED4B
:10567000100B3B48FBF744FEF2E79DED100B394859
:10568000FBF73EFEECE74CA9344800F06DF84C986F
:105690004EAB984201D005F045FC529854AB98426D
:1056A00001D005F03FFC129814AB984201D005F0F0
:1056B00039FC029804AB984201D005F033FC58B095
:1056C00070BD229824AB984201D005F02BFC1298B3
:1056D00014AB984201D005F025FC029804AB984227
:1056E00001D005F01FFC05F021FC2E9830AB98424C
:1056F00001D005F017FC469848AB984201D005F060
:1057000011FC349836AB984201D005F00BFC3A9866
:105710003CAB984201D005F005FC409842AB984262
:1057200001D005F0FFFB08980AAB9842CFD005F0F6
:10573000F9FBCCE7DFE7E4E7F5E74C984EAB98429E
:1057400001D005F0EFFB529854AB9842BFD005F062
:10575000E9FBBCE7F7E7BAE7BFE700BF200C002092
:10576000A80B0020E40B002008B50B464968013166
:1057700089B2186805F042F908BD0000012800D080
:10578000704708B54FF6FF73994200D008BD01215C
:10579000802000F019FB014B1860F7E7280C00206F
:1057A0002DE9F043A5B00746164698460024049418
:1057B0007C22214605A80EF073FC8DF80F403023A3
:1057C0008DF80E3007F108033B6031494FF00003BC
:1057D0000A463846FBF7D6FE00F022FE04460025B6
:1057E00018E0814600BB2B4B18680DF10E0100F04C
:1057F0002BFB9DF80F3024AA13449DF80E2003F8CC
:10580000802C00F00DFE04469DF80F100131C9B246
:105810008DF80F109DF80E30B3420CD05DB91D4BC2
:10582000186800F00BFBDCE700F0FAFD001B4045B8
:10583000F0D94D46EEE7184B00221A705DB11146C3
:105840007A603B681A7019230093144B7A683846C3
:1058500006F018FA18E000237B603A68137004A879
:10586000FAF70EFF7A6802B10022009004AB002123
:10587000384606F007FA07E057F8080BB84201D09F
:1058800005F050FB05F052FB384625B0BDE8F0832B
:1058900044A70108280C0020240C0020F4A80108CB
:1058A00030B5A3B00446002502957C22294603A802
:1058B0000EF0F6FB8DF8075030238DF80630174BAD
:1058C000186800F0BBFAA0B9144B18680DF1060176
:1058D00000F0BAFA9DF8073022AA13449DF806207A
:1058E00003F8802C9DF807300133DBB28DF80730C8
:1058F000E5E70B4B00221A7004F10803236002A8AD
:10590000FAF7BEFE4FF0000302AA024402A92046A5
:10591000FBF738FE204623B030BD00BF280C002026
:10592000240C002008B54FF6FF710120FFF726FF79
:1059300008BD0000F0B58DB00024079408940994C8
:105940000A940B94354B5A6942F400225A615A6901
:1059500002F400220192019A5A6942F480025A61CB
:105960005A6902F480020292029A5A6942F40032A1
:105970005A615A6902F400320392039A5A6942F456
:1059800080225A615A6902F480220492049A5A6968
:1059900042F400125A615A6902F400120592059A03
:1059A0005A6942F480125A615B6903F480130693CA
:1059B000069B1B4F2246C021384600F0FCFF194EC3
:1059C00022464FF48471304600F0F5FF4FF408731F
:1059D000079308940125099507A94FF0904000F01E
:1059E00017FF712307930894099507A9304600F023
:1059F0000FFFC0230793089509940A9407A9384616
:105A000000F006FF4FF484730793089509940A94F5
:105A100007A9304600F0FCFE0DB0F0BD00100240BA
:105A2000001400480004004838B50D4C0D4B2360AD
:105A30000D4B63600025A5600123E360256165616E
:105A4000A561E5612562204600F0C3FF2946204696
:105A500001F01DF82946204601F047F838BD00BF87
:105A6000840C0020005400400E09002008B50748AF
:105A7000074B0360002343607F228260FF22C260E5
:105A800003614361836102F0C0FC08BDD00C0020BB
:105A90000028004008B50548054B0360002343601B
:105AA0008360C360036102F02FFD08BD780D002004
:105AB0000068014030B585B0002400940194029440
:105AC00003940A4D0A4B2B606C60AC60EC602C6157
:105AD000284602F019FD00940194029403946A464A
:105AE0002146284602F062FD05B030BDF00C0020D2
:105AF0000060014030B585B0002400940194029408
:105B000003940A4D0A4B2B606C60AC60EC602C6116
